:020000040800F2
:1000000030760020490A0008510A0008530A000807
:10001000550A0008570A0008590A000800000000A5
:10002000000000000000000000000000AD0100081A
:100030005D0A000800000000350200088502000883
:10004000630A0008630A0008630A0008630A0008DC
:10005000630A0008630A0008630A0008630A0008CC
:10006000630A0008630A0008630A0008630A0008BC
:10007000630A0008630A0008630A0008630A0008AC
:10008000630A0008630A0008630A0008630A00089C
:10009000630A0008630A0008630A0008630A00088C
:1000A000630A0008630A0008630A0008630A00087C
:1000B000630A0008630A0008630A0008630A00086C
:1000C000630A0008630A0008630A0008630A00085C
:1000D000630A000851060008E50700082B0800081D
:1000E000630A0008630A0008630A0008630A00083C
:1000F000630A0008630A0008630A0008630A00082C
:10010000630A0008630A0008630A0008630A00081B
:10011000630A0008630A0008630A0008630A00080B
:10012000630A0008630A0008630A0008630A0008FB
:10013000DFF80CD002F0D6FC00480047AF040008FE
:100140003076002080F309887047EFF3098070470C
:10015000684680F3098804480078C00714BF02206D
:10016000032080F31488704720360008DFF818C099
:10017000EFF305831B0618BF6047EFF31483DB071B
:1001800008BF604700DF70475B2C0008DFF818C02D
:10019000EFF305831B0618BF6047EFF31483DB07FB
:1001A00008BF604700DF7047012E0008EFF30980A9
:1001B000816911F8021C39BB90E80F10E047EFF39A
:1001C000098C194B93E80600914218D059B10CB430
:1001D0004FF0010381F821302CE9F00FC1F824C061
:1001E00003F05EF80CBC1A60D2F824C0BCE8F00F33
:1001F00092F821308CF309881BB192F82000CCF8DA
:1002000000006FF0020E704710B5084A1268914264
:1002100009D8074C54F8214090E80F10A047EFF39D
:10022000098C8CE80F0010BD20090020682B000805
:10023000682B000802F04EFF114B93E80600914234
:100240001BD00CB44FF0000381F82130EFF3098C80
:100250002CE9F00FC1F824C003F022F80CBC1A609E
:10026000D2F824C0BCE8F00F8CF3098892F8213052
:100270001BB192F82030CCF800306FF0020E7047BE
:100280002009002003F0DEF8D6E7000002F0E4FCCD
:1002900003F0D8F8D0E700000CB5002001900090E2
:1002A0006B48006840F480306949086000BF6848C6
:1002B000006800F4003000900198401C0190009804
:1002C00018B90198B0F5A06FF1D16148006810F439
:1002D000003F02D00120009001E000200090009833
:1002E000012842D15B48006840F01000594908607D
:1002F0000846006820F0030008600846006840F0E7
:100300000200086052484068514948600846406809
:1003100048600846406840F480604860084640688D
:1003200020F47C1048600846406840F4E8104860BB
:100330000846006840F08070086000BF44480068CC
:1003400010F0007FFAD04248406820F00300404996
:1003500048600846406840F00200486000BF3C48E2
:10036000406800F00C000828F9D10CBD10B5FFF76B
:1003700093FF10BD10B53648006840F001003449C5
:1003800008600846406834490840314948600846DA
:100390000068324908402E4908600846006820F489
:1003A000802008600846406820F4FE0048604FF452
:1003B0001F008860FFF7DAFF4FF0006028490860EF
:1003C00010BD10B5002100200022214B5B6803F016
:1003D0000C0121B1042906D0082928D107E0214BBE
:1003E000214C236027E01F4B1F4C236023E0184B58
:1003F0005B6803F47010164B5B6803F480320223D1
:1004000003EB904022B9194B4343174C23600DE096
:100410000F4B5B6813F4003F04D0144B4343124C62
:10042000236003E00F4B43430F4C236003E00D4B6D
:100430000D4C236000BF00BF054B5B68C3F3031383
:100440000B4CE15C084B1B68CB40074C236010BD94
:1004500000100240002002400000FFF8FFFFF6FEFF
:1004600008ED00E000127A000000002000093D00C5
:100470000400002002F09EF902F0B8F81648DFF8F8
:100480005CC000DF0023164A1649AFF21300DFF804
:1004900058C000DF0023154A1249491CAFF22B0057
:1004A000DFF844C000DF0020DFF844C000DF00F0C8
:1004B00034F900F0F0FA02F03FFA01F011F900F01F
:1004C0006AFAFFF745FE0B4A0B49AFF24F00DFF81F
:1004D0002CC000DF00BFFEE7B82A0020B52F0008BF
:1004E000480B002003B80F00C1340008001B002097
:1004F0005535000848090020FF000200ED320008D1
:1005000030B50146481EB0F1807F01D3012030BDD7
:10051000481E4FF0E022506150170F22002806DAE3
:100520001301F74C00F00F052D1F635502E0130176
:10053000F44C235400BF00204FF0E02290610720CC
:1005400010610020E3E77CB5044642F21070B4FB72
:10055000F0F0019042F21070B4FBF0F100FB11409A
:100560000090002500BF05E042F21070DFF898C34C
:1005700000DF6D1C01988542F6D3009820B10099E8
:1005800088B2DFF884C300DF7CBD7CB5044642F24C
:100590001070B4FBF0F0019042F21070B4FBF0F177
:1005A00000FB11400090002500BF05E042F21070F2
:1005B000DFF854C300DF6D1C01988542F6D3009824
:1005C00020B1009988B2DFF840C300DF7CBD00B5E0
:1005D00085B00121052001F09BFD0121480401F0B7
:1005E000A4FD0420ADF8000018208DF80300694632
:1005F000C64801F0D7FA0820ADF8000004208DF8B5
:1006000003006946C14801F0CDFA0121C04801F05C
:10061000B6FE4FF4E13001900020ADF80800ADF8CF
:100620000A00ADF80C000C20ADF80E000020ADF86B
:10063000100001A9B64801F016FE012240F2255132
:10064000B34801F0A8FE262000F0EAF905B000BD8D
:1006500010B540F22551AF4801F082FFB0B140F231
:100660002551AC4801F073FFAA4801F0F9FEAA49F0
:1006700091F8FA10A84A5054104690F8FA00401C1D
:10068000114681F8FA000120A449087010BD00B598
:1006900085B0012144F2050001F03AFD4FF40070ED
:1006A000ADF8000003208DF8020018208DF803003B
:1006B0006946964801F076FA4FF48060ADF8000084
:1006C00003208DF8020004208DF8030069468F484E
:1006D00001F068FA01218F4801F051FE4FF4E1303A
:1006E00001900020ADF80800ADF80A00ADF80C004C
:1006F0000C20ADF80E000020ADF8100001A98548CF
:1007000001F0B1FD012240F22551824801F043FE83
:10071000252000F085F905B000BD00B585B00121A8
:10072000092001F0F5FC0121880401F0FEFC4FF4E2
:100730008060ADF8000003208DF8020018208DF8CD
:1007400003006946764801F02DFA4FF40060ADF8D9
:10075000000003208DF8020004208DF80300694694
:100760006F4801F01FFA01216E4801F008FE4FF4B6
:10077000165001900020ADF80800ADF80A00ADF861
:100780000C000C20ADF80E000020ADF8100001A9FF
:10079000644801F068FD012240F22551614801F0F2
:1007A000FAFD272000F03CF905B000BD70B5044605
:1007B00000205D4908605D4800684FF47A71B0FB25
:1007C000F1F52846FFF79CFE09E057480068A04273
:1007D00005D1002054490860FFF792FE00E0F4E7DD
:1007E00000BF70BD10B540F22551494801F0B8FE78
:1007F00010B101204E49087010BD70B502460C467C
:10080000FF25FF2309E012F8010B80EA05014948A2
:10081000405C80EA03054848435C2000A4F10106DF
:10082000B4B2F0D143EA052070BD10B540F22551B5
:100830003C4801F095FEB0B10120404908703948AC
:1008400001F00EFE3E4991F8FA103D4A5054104610
:1008500090F8FA00401C114681F8FA0040F2255148
:10086000304801F074FE10BD2DE9F04105460E46FA
:1008700017460024012D19D100BF4021254801F061
:1008800059FE0028F9D00FE0BC4200D10DE0315DE7
:10089000204801F0E1FD00BF40211E4801F04AFE62
:1008A0000028F9D0601CC4B2EEE75AE0022D19D13D
:1008B00000BF4021164801F03DFE0028F9D00FE0AE
:1008C000BC4200D10DE0315D114801F0C5FD00BF13
:1008D00040210F4801F02EFE0028F9D0601CC4B260
:1008E000EEE73EE0032D3CD100BF40210D4801F072
:1008F00021FE0028F9D032E0BC4223D130E00000D4
:1009000018ED00E000E400E0AD2D00080008014013
:100910000044004000380140B32D002014020020A4
:10092000000C014000480040180200200000002098
:1009300015020020140000201401002016020020DF
:10094000B82C0020315D3C4801F086FD00BF4021FD
:10095000394801F0EFFD0028F9D0601CC4B2CBE7A4
:1009600000BFBDE8F08170B502460C46FF25FF23AD
:1009700009E012F8010B80EA05013048405C80EA8A
:1009800003052F48435C2000A4F10106B4B2F0D166
:1009900043EA052070BD08B50121102001F0B8FB25
:1009A0004FF45070ADF8000003208DF802001020C5
:1009B0008DF803006946234801F0F4F84FF45071B4
:1009C000204801F09CF908BD10B50446012C04D163
:1009D00001021C4801F091F905E0022C03D121022B
:1009E000184801F08AF910BD10B54021154801F0F2
:1009F00084F910BD10B54021124801F080F910BDF6
:100A000010B50446012C04D101020E4801F077F91B
:100A100005E0022C03D121020A4801F070F910BD53
:100A200000F01F020121914042094FF0E02303EB47
:100A30008202C2F8001170470048004014000020F4
:100A40001401002000100140064880470648004776
:100A5000FEE7FEE7FEE7FEE7FEE7FEE7FEE7FEE76E
:100A6000FEE7FEE7750300083101000800BFFEE75E
:100A7000704700BFFEE7000010B50446012C04D10A
:100A80000103FE4801F039F904E04FF48051FB48BE
:100A900001F035F910BD08B50121082001F038FB3F
:100AA0004FF48050ADF8000003208DF802001020B4
:100AB0008DF803006946F14801F074F808BD10B5DF
:100AC000FA21EF4801F0FBFF0020ED4981F8FA0020
:100AD00010BD10B5FFF7F3FFFFF7DDFF0020FFF7B4
:100AE000CBFF10BD10B50446E54890F8FA2001464A
:100AF000204601F0CBFF0020E249087010BD10B580
:100B000003460A460020002109E0941E8C4204D0CE
:100B1000D41E8C4201D05C5C60404C1CE1B291421E
:100B2000F3DB10BD10B500230B4603F00F010023CB
:100B3000134603F00F02090141EA0204047010BDDC
:100B400010B5044607E00A20FFF71FFD601E84B2BF
:100B50000CB9002010BDCB4800780028F3D04FF42A
:100B6000FA60FFF712FD0120F4E770B505460C4668
:100B70000020C44908700120FFF77EFF40F6FF7196
:100B8000C148DFF808C300DF4CB9284601F0A2FFD6
:100B9000C6B2324629460320FFF766FE04E022462D
:100BA00029460320FFF760FE0020FFF765FFB648E7
:100BB000DFF8DCC200DF70BD0EB50022B54B1A7045
:100BC00002920CE09DF808208A5CB24B1B785A40D8
:100BD000B04B1A709DF80820521CD2B202929DF8B8
:100BE00008208242EEDBAB4A12780192A94A1278C1
:100BF00000929DF8042002F0F00201929DF800207E
:100C000002F00F0200929DF80420121101929DF84B
:100C1000042042F0A002A04B1A709DF8002042F080
:100C2000B0029E4B1A700EBD00F0F0030B7000F086
:100C30000F0313700B781B110B700B7843F09003AC
:100C40000B70137843F09003137070471CB5044683
:100C5000FFF735FF00208B4908706421904801F0B0
:100C60002EFF21208E490870702048706A4601A925
:100C70002046FFF7D9FF9DF80400894988709DF848
:100C80000000C870C02008710520FFF795FF82485A
:100C9000007883490871814800784871C0208871C4
:100CA00000217F48FFF761FF1CBDF8B50027002435
:100CB0000420FFF7CBFF4FF44870FFF741FF30B13E
:100CC0002821784801F0FBFE7648FFF70BFF6C48BF
:100CD00090F8FA00401EC4B2FFF7F1FE21467148B9
:100CE000FFF70DFF0546064606F00F0605F0F00576
:100CF0002D1145F0A00546F0B006E01E6949085CDC
:100D0000A8422CD1A01E085CB04228D1E01F0D5C87
:100D1000A01F0E5C324629466846FFF703FF9DF888
:100D2000000061490870601F5E490D5C201F0E5C69
:100D3000324629466846FFF7F5FE9DF800005A49FD
:100D400048700846007800F018000870084640789F
:100D500000F00F00487000205449087002E00120A4
:100D600052490870F8BDF8B5002000900025002613
:100D70004C490870487001200090FFF7A0FE002049
:100D80004049087001216846FFF7EFFE4FF47A7082
:100D9000FFF7D6FE002830D04248FFF7A3FEFFF74A
:100DA0008EFE4048447804F001041CB10120404903
:100DB000087002E000203E4908703A48447804F088
:100DC00010041CB101203B49087002E000203949A1
:100DD00008703448447804F002041CB101203649FC
:100DE000087002E00020344908702E480478412C35
:100DF00001D10120F8BD0020FCE70020FAE780EADD
:100E00000102244B1A701A461078117800F0F00095
:100E100001F00F01001140F0A0021F4B1A7040F0CA
:100E2000B0021E4B1A70704700F0F0030B7000F018
:100E30000F0313700B781B110B700B7843F08003BA
:100E40000B70137843F08003137070477CB5054630
:100E50000C4600200B4908706421114801F02FFE58
:100E600021200F490870602048706A4601A9284671
:100E7000FFF7DAFE9DF8040009491FE0000C01406D
:100E8000B82C002016020020B82A0020713000087B
:100E9000C52F00088604002093040020940400203D
:100EA000C2330020FA320020BC3400208A04002023
:100EB00087040020890400208804002088709DF8A1
:100EC0000000C8706A4601A92046FFF7ADFF9DF8F3
:100ED0000400FE4908719DF800004871C020887127
:100EE0000720FFF769FEFA480078F8498871F94849
:100EF0000078C871C02008720921F448FFF735FE58
:100F00007CBD2DE9FC4107460E4614462120EF49E1
:100F10000870602048706A4601A93846FFF784FED1
:100F20009DF80400E94988709DF80000C87000250C
:100F300023E0705D00F0F0000190705D00F00F00A4
:100F400000909DF80400001101909DF8040040F00D
:100F5000800001909DF8000040F0800000909DF816
:100F60000400042101EB4501D84A50549DF80000CB
:100F7000052101EB450150546D1CA542D9DBC02071
:100F8000042101EB4401D14A5054052101EB4401F5
:100F9000C8B21146FFF710FECD480078042101EBDE
:100FA0004401CA4A5054CB480078052101EB440162
:100FB0005054C020062101EB44015054072000EB9F
:100FC0004400C1B21046FFF7D0FDBDE8FC812DE919
:100FD000F84306460F21C04801F071FD0F21BF48BC
:100FE00001F06DFD00200090002780468146FFF74C
:100FF00066FD0020BA4908703046FFF727FE062E2E
:1010000051D14FF47A70FFF79BFD00284BD0B248C6
:10101000FFF768FDFFF753FDAF48007B00F0F004D9
:10102000AD48407B00F0F00544EA2514AB2C3AD1E2
:10103000A9488078902836D1A748C078962832D120
:10104000A84800210160A448047945792A46214630
:101050006846FFF767FD9DF80000A24908709E48AA
:101060008479C5792A4621466846FFF75BFD9DF8DD
:1010700000009C4948709848047A457A2A462146DF
:101080006846FFF74FFD9DF800009649887092482A
:10109000847AC57A2A4621466846FFF743FD9DF8C3
:1010A00000009049C870072E51D14FF47A70FFF7B5
:1010B00047FD00284BD08948FFF714FDFFF7FFFCE0
:1010C0008648007B00F0F0048448407B00F0F00587
:1010D00044EA2514AB2C3AD180488078902836D148
:1010E0007E48C078972832D17F48002101607B4834
:1010F000047945792A4621466846FFF713FD9DF895
:1011000000007949087075488479C5792A462146D6
:101110006846FFF707FD9DF80000734948706F4867
:10112000047A457A2A4621466846FFF7FBFC9DF87B
:1011300000006D4988706948847AC57A2A4621463C
:101140006846FFF7EFFC9DF800006749C870BDE8EE
:10115000F8832DE9F04707464FF00008C14600200C
:10116000624908704870FFF7AAFC00205C490870CB
:101170000B2F7DD2DFE807F0FD06478AE0FCFBFA83
:10118000F9F8F70003210020FFF760FE4FF44870E4
:10119000FFF7D6FC10B15548FFF7A4FCFFF78FFC12
:1011A0005248457801210846FFF750FE4FF4487039
:1011B000FFF7C6FC10B14D48FFF794FCFFF77FFC2A
:1011C0004A48447809210320FFF740FE4FF4487055
:1011D000FFF7B6FC10B14048FFF784FCFFF76FFC47
:1011E0004248467806F0020605F0020504F00204C3
:1011F0000EB905B91CB101203D49087002E000207C
:101200003B49087069E201210020FFF71FFE4FF4FF
:101210004870FFF795FC10B13448FFF763FCFFF707
:101220004EFC3248457803210120FFF70FFE40F2C3
:10123000DC50FFF785FC10B12C48FFF753FCFFF79B
:101240003EFC2A48447809210320FFF7FFFD4FF4B4
:101250004870FFF775FC10B12448FFF743FCFFF717
:101260002EFC2248467806F0020605F0020500E052
:1012700032E204F002040EB905B91CB101201C4988
:10128000087002E000201A49087026E203210020BD
:10129000FFF7DCFD4FF44870FFF752FC10B1134824
:1012A000FFF720FCFFF70BFC1048457803210120D5
:1012B000FFF7CCFD4FF44870FFF742FC10B10B482C
:1012C000FFF710FCFFF7FBFB084813E0C2330020D8
:1012D0009304002094040020DC320020EB32002034
:1012E000160200208B0400208F040020FA32002018
:1012F00085040020447809210320FFF7A7FD4FF45F
:101300004870FFF71DFC10B1FE48FFF7EBFBFFF73D
:10131000D6FBFC48467806F0020605F0020504F00C
:1013200002040EB905B91CB10120F749087002E0AA
:101330000020F5490870D0E101210020FFF786FD6B
:101340004FF44870FFF7FCFB10B1EE48FFF7CAFB03
:10135000FFF7B5FBEB48457802210120FFF776FD4A
:101360004FF4487006E075E133E1F1E0AFE06DE085
:101370002BE0B0E1FFF7E4FB10B1E248FFF7B2FB6E
:10138000FFF79DFBDF48447809210320FFF75EFD4E
:101390004FF44870FFF7D4FB10B1DA48FFF7A2FB17
:1013A000FFF78DFBD748467806F0020605F00205E8
:1013B00004F002040EB905B91CB10120D24908702D
:1013C00002E00020D049087087E101210020FFF7EA
:1013D0003DFD4FF44870FFF7B3FB10B1C948FFF76C
:1013E00081FBFFF76CFBC748457801210846FFF7F2
:1013F0002DFD4FF44870FFF7A3FB10B1C148FFF774
:1014000071FBFFF75CFBBF48447809210320FFF71D
:101410001DFD4FF44870FFF793FB10B1B948FFF77B
:1014200061FBFFF74CFBB748467806F0020605F073
:10143000020504F002040EB905B91CB10120B2493D
:10144000087002E00020B049087046E10221012046
:10145000FFF7FCFC40F2DC50FFF772FB10B1A9482B
:10146000FFF740FBFFF72BFBA64844780821032039
:10147000FFF7ECFC4FF44870FFF762FB10B1A14896
:10148000FFF730FBFFF71BFB9E4846780221002048
:10149000FFF7DCFC4FF44870FFF752FB10B199489E
:1014A000FFF720FBFFF70BFB9648457806F0020696
:1014B00005F0020504F002040EB905B91CB10120C3
:1014C0009149087002E000208F49087005E103216E
:1014D0000020FFF7BBFC4FF44870FFF731FB10B161
:1014E0008848FFF7FFFAFFF7EAFA864845780221B5
:1014F0000120FFF7ABFC4FF44870FFF721FB10B160
:101500008048FFF7EFFAFFF7DAFA7E4844780921BE
:101510000320FFF79BFC4FF44870FFF711FB10B15D
:101520007848FFF7DFFAFFF7CAFA7648467806F000
:10153000020605F0020504F002040EB905B91CB15B
:1015400001207149087002E000206F490870C4E072
:1015500002210020FFF77AFC4FF44870FFF7F0FA01
:1015600010B16848FFF7BEFAFFF7A9FA6548457859
:1015700001210846FFF76AFC4FF44870FFF7E0FAD4
:1015800010B16048FFF7AEFAFFF799FA5D4844786A
:1015900009210320FFF75AFC4FF44870FFF7D0FAF7
:1015A00010B15848FFF79EFAFFF789FA5548467878
:1015B00006F0020605F0020504F002040EB905B9B2
:1015C0001CB101205049087002E000204E4908700B
:1015D00083E002210020FFF739FC4FF44870FFF749
:1015E000AFFA10B14748FFF77DFAFFF768FA4548B0
:1015F000457803210120FFF729FC4FF44870FFF7DD
:101600009FFA10B13F48FFF76DFAFFF758FA3D48CF
:10161000447809210320FFF719FC4FF44870FFF7C5
:101620008FFA10B13748FFF75DFAFFF748FA3548EF
:10163000467806F0020605F0020504F002040EB931
:1016400005B91CB101203049087002E000202E4984
:10165000087042E001210020FFF7F8FB4FF44870CA
:10166000FFF76EFA10B12748FFF73CFAFFF727FAA9
:101670002448457801210846FFF7E8FB4FF44870FD
:10168000FFF75EFA10B11F48FFF72CFAFFF717FAC1
:101690001C48447808210320FFF7D8FB4FF448701A
:1016A000FFF74EFA10B11748FFF71CFAFFF707FAD9
:1016B0001448467806F0020605F0020504F002041C
:1016C0000EB905B91CB101200F49087002E00020D5
:1016D0000D49087001E000E000BF00BFBDE8F087E1
:1016E00008B50121042000F013FD3020ADF8000002
:1016F00003208DF8020010208DF80300694603488E
:1017000006E00000FA3200208504002000080140B5
:1017100000F048FA3021E94800F0F1FA08BD10B5B0
:101720003021E64800F0E9FA41F28830FEF72DFF5B
:101730003021E24800F0E3FA10BD2DE9F0474FF008
:101740000008C146002400250026FFF7B8F9002054
:10175000DB490870C820FEF718FF0020FFF776FA73
:101760004FF44870FFF7ECF910B1D648FFF7BAF91B
:10177000FFF7A5F9D348407900F00F073C46C82091
:10178000FEF703FF0120FFF761FA4FF44870FFF7FF
:10179000D7F910B1CB48FFF7A5F9FFF790F9C94881
:1017A000407900F00F073D46C820FEF7EEFE03200B
:1017B000FFF74CFA4FF44870FFF7C2F910B1C14877
:1017C000FFF790F9FFF77BF9BE48407900F00F076B
:1017D0003E4600200746032C07D1012D05D1092ED6
:1017E00003D101270120BDE8F087012C06D1032D8C
:1017F00004D1092E02D102270220F4E7012C06D1E0
:10180000012D04D1092E02D105270520EBE7012C7B
:1018100006D1012D04D1082E02D10A270A20E2E7C1
:10182000032C06D1032D04D1092E02D10327032056
:10183000D9E7022C06D1022D04D1082E02D10627A9
:101840000620D0E7022C06D1012D04D1092E02D1A9
:1018500008270820C7E7012C07D1022D05D1092E42
:1018600003D1042700BF0420BDE7032C06D1022DBD
:1018700004D1092E02D107270720B4E7022C06D194
:10188000032D04D1092E02D109270920ABE70FB996
:101890000020A8E700BFA6E770B504460025002693
:1018A000FFF70DF9002086490870062C02D113219C
:1018B000FFF7CCFA072C03D113210120FFF7C6FA5A
:1018C0000020FFF7C3F94FF44870FFF739F910B162
:1018D0007C48FFF707F9FFF7F2F870BD2DE9F843F0
:1018E00000200090804681460027764908704870A5
:1018F000FFF7E5F800207249087000BF05E00021FD
:10190000714A1154714A1154401C0428F7DB002419
:101910001DE024B9042269460620FFF7F2FA012CE3
:1019200004D1042269460720FFF7EBFA4FF4E16087
:10193000FFF706F918B16348FFF7D4F801270CB98F
:1019400060484578012C01D15E484678641C022C21
:10195000DFDBFFF7B4F817B10120BDE8F883002002
:10196000FBE710B5FFF7BAFF08B1012010BD00205A
:10197000FCE72DE9FC4707460D4616464FF00008E8
:10198000C146002432214F4801F099F821205049E6
:1019900008706F2048706A4601A93846FFF744F97D
:1019A0009DF804004A4988709DF80000C8706A4696
:1019B00001A92846FFF738F99DF804004449087149
:1019C0009DF80000487100BF11E0305D6A4601A932
:1019D000FFF72AFA9DF804106000801D3C4A11545C
:1019E0009DF800106000C01D1154601CC4B2AC42D0
:1019F000EBDBC0216000801D354A11546900C91D10
:101A0000C8B21146FFF7D8F8324801786000801D4F
:101A10002F4A1154304801786000C01D1154C02174
:101A2000600008301154FFF74AF868000930C1B26D
:101A30002748FFF79AF84FF44870FFF781F810B184
:101A40002048FFF74FF8FFF73AF81E48007801905A
:101A50001C48407800909DF8000000F002000090C3
:101A60009DF8000018B101201C49087002E0002018
:101A70001A4908709DF80400412802D10120BDE8F0
:101A8000FC870020FBE710B500240CE004EB840188
:101A9000134B03EB410204EB84014906080E0A21B3
:101AA000FFF767FF641C092CF0DB0D4A5A3207214F
:101AB0005A20FFF75EFF012010BD00000008014022
:101AC00016020020FA3200208B0400208F04002030
:101AD000C2330020930400209404002085040020D9
:101AE0002404002010B50446CA48844208D10121CC
:101AF000042000F027FB0021042000F023FB46E037
:101B0000C548844208D10121082000F01BFB0021B8
:101B1000082000F017FB3AE0C048844208D10121B8
:101B2000102000F00FFB0021102000F00BFB2EE036
:101B3000BB48844208D10121202000F003FB002192
:101B4000202000F0FFFA22E0B648844208D10121AB
:101B5000402000F0F7FA0021402000F0F3FA16E0F0
:101B6000B148844208D10121802000F0EBFA002125
:101B7000802000F0E7FA0AE0AC48844207D1012156
:101B8000801500F0DFFA0021A01500F0DBFA10BD8F
:101B900010B50121084600F0D5FA0021012000F01F
:101BA000D1FA10BD2DE9F0410246002500260020A3
:101BB00000230024002791F803C00CF00F0591F8D2
:101BC00003C01CF0100F03D091F802C04CEA0505C9
:101BD00091F800C0BCF1000F31D0146800202BE058
:101BE0004FF0010C0CFA00F3B1F800C00CEA030648
:101BF0009E4220D183004FF00F0C0CFA03F7BC4338
:101C000005FA03FC4CEA040491F803C0BCF1280F68
:101C100006D14FF0010C0CFA00FCC2F814C00AE027
:101C200091F803C0BCF1480F05D14FF0010C0CFA3C
:101C300000FCC2F810C0401C0828D1D31460B1F8D1
:101C400000C0BCF1FF0F34DD546800202EE000F12D
:101C5000080C4FF0010808FA0CF3B1F800C00CEAC8
:101C600003069E4221D183004FF00F0C0CFA03F7BC
:101C7000BC4305FA03FC4CEA040491F803C0BCF130
:101C8000280F05D100F1080C08FA0CF8C2F81480EE
:101C900091F803C0BCF1480F07D100F1080C4FF0D8
:101CA000010808FA0CF8C2F81080401C0828CED3AE
:101CB0005460BDE8F0814FF6FF7101800221817010
:101CC0000421C17070470246002093680B4201D086
:101CD000012000E0002070470146886880B270470C
:101CE00002460020D3680B4201D0012000E0002012
:101CF00070470146C86880B2704701617047416112
:101D000070470AB1016100E041617047C1607047EE
:101D10004FF480320A438261816182618269826903
:101D2000704702460020424B18684FF680731840F7
:101D300040EA021008433E4B186070473D49C861B5
:101D40007047F0B50A46002300240021002500F06A
:101D50000046B6F1004F02D1354EF16901E0344E34
:101D60007168C0F3034583B200F44016B6F5401F16
:101D700008D121F070612E4E766826F070662C4FE7
:101D80007E6012E000F48016B6F5801F06D10326AF
:101D900006FA05F4A14341F0706106E0460D3601F4
:101DA00003FA06F6B14341F0706122B1460D3601E7
:101DB00003FA06F6314300F00046B6F1004F02D1B7
:101DC0001B4EF16101E01A4E7160F0BD30B500228A
:101DD0008B071C0F0F2303FA04F2154B08338C10EA
:101DE00053F824309343124C08348D1044F82530B6
:101DF00023468C1053F824308C07240F00FA04F487
:101E000023430B4C08348D1044F8253030BD0A496B
:101E10000860704700080140000C014000100140BC
:101E20000014014000180140001C01400020014046
:101E30000000014000002042DC002042DD48006834
:101E400040F00100DB49086008464068DA49084074
:101E5000D849486008460068D8490840D549086014
:101E60000846006820F4802008600846406820F496
:101E7000FE0048604FF41F0088607047CD49096834
:101E800021F48031CB4A11601146096821F4802188
:101E90001160B0F5803F03D0B0F5802F0ED106E081
:101EA000C449096841F48031C24A116007E0C14960
:101EB000096841F4A021BF4A116000E000BF00BFE3
:101EC000704710B501460022002300204A11012A64
:101ED00002D1B84C236806E0022A02D1B54C236A2D
:101EE00001E0B44C636A01F01F02012494401C42DB
:101EF00001D0012000E0002010BD38B50020009086
:101F00000024002500BF3120FFF7DBFF05460098C5
:101F1000401C00900098B0F5A06F01D0002DF2D0C9
:101F20003120FFF7CEFF08B1012400E00024204655
:101F300038BD014600209F4A106820F0F80040EAB2
:101F4000C100106070479E4908607047024600203B
:101F5000984B586820F47C1042EA01031843954BD3
:101F60005860704796490866704701460020914ABC
:101F7000506820F003000843506070478D48406867
:101F800000F00C007047014600208A4A506820F09B
:101F9000F00008435060704701460020854A5068B1
:101FA00020F4E06008435060704701460020814AF9
:101FB000506820F4605040EAC1005060704729B179
:101FC0007C4A527A02437B4B5A7204E0794A527A35
:101FD0008243784B5A7270477A49086070470146CD
:101FE0000020744A506820F4404008435060704715
:101FF0000021754A11706F4A82F82010012802D022
:10200000042808D103E001216F4A117004E0052182
:102010006D4A117000E000BF00BF70476B49086057
:1020200070476449096A0143624A1162704767490F
:1020300044390860704730B5002100220024002395
:102040005C4D6D6805F00C0121B1042905D008290B
:1020500023D105E05E4D056022E05D4D05601FE087
:10206000544D6D6805F47012524D6D6805F480345E
:10207000022505EB92421CB9564D554305600BE015
:102080004C4D6D6815F4003F03D0524D554305602B
:1020900002E04F4D5543056002E04D4D056000BF25
:1020A00000BF444D6D6805F0F00109094A4D6B5CB5
:1020B0000568DD4045603F4D6D6805F4E061090A43
:1020C000454D6B5C4568DD4085603A4D6D6805F4B3
:1020D0006051C90A404D6B5C4568DD40C560354DB7
:1020E0006D6805F44041890B3C4D6B5CC568B5FBE0
:1020F000F3F5056130BD29B12E4A526902432D4BDB
:102100005A6104E02B4A526982432A4B5A61704754
:1021100029B1284A92690243264B9A6104E0254A74
:1021200092698243234B9A61704729B1214AD2694F
:102130000243204BDA6104E01E4AD26982431D4B00
:10214000DA61704729B11B4AD2680243194BDA6041
:1021500004E0184AD2688243164BDA60704729B10E
:10216000144A12690243134B1A6104E0114A1269BE
:102170008243104B1A617047144940390860704718
:102180000F49C86470470B49C87170470948406AD5
:1021900040F0807007494862704701460020054AB8
:1021A00092680A4201D0012000E0002070470149F6
:1021B00088727047001002400000FFF8FFFFF6FE33
:1021C00000004242D80042422010024080044242B5
:1021D00000127A0000093D0095040020A5040020AB
:1021E00010B50446FB48844209D101218803FFF75A
:1021F000A9FF00214FF48040FFF7A4FF32E0F6482A
:10220000844209D101214804FFF7A9FF00214FF4BE
:102210000030FFF7A4FF25E0F048844209D10121F6
:102220008804FFF79CFF00214FF48020FFF797FF01
:1022300018E0EB48844209D10121C804FFF78FFF61
:1022400000214FF40020FFF78AFF0BE0E5488442AD
:1022500008D101210805FFF782FF00214FF480100B
:10226000FFF77DFF10BD2DE9F04786B005460E460D
:102270000024A24600BFA1460027B08900B100BFDC
:102280002F462C8A4CF6FF700440F08804432C82C1
:10229000AC894EF6F3100440B08831890843718947
:1022A00008430443AC81AC8A4FF6FF400440B08938
:1022B0000443AC8201A8FFF7BEFEC648874202D1A4
:1022C000DDF810A001E0DDF80CA0A88910F4004FA3
:1022D00008D00AEBCA0000EB0A1031684900B0FBD5
:1022E000F1F807E00AEBCA0000EB0A103168890038
:1022F000B0FBF1F86420B8FBF0F004012009642180
:1023000001FB1089A88910F4004F08D0322000EB9F
:10231000C900B0FBF1F000F00700044308E03220F0
:1023200000EB09106421B0FBF1F000F00F00044352
:102330002C8106B0BDE8F0874FF4165101600021F2
:102340008180C18001810C21418100218181704700
:1023500010B502460020108A4FF2FF0318400B8888
:102360004C8823438C882343CC8823431843108212
:1023700010BD0021018041808180C180704721B162
:10238000828942F40052828104E082894DF6FF7313
:102390001A4082817047F0B50346002400260025CC
:1023A0000020A1F510676A3F00D100BF1846C1F3B5
:1023B000421401F01F06012707FA06F5012C01D18E
:1023C0000C3004E0022C01D1103000E014301AB1BE
:1023D00007682F43076002E00768AF430760F0BD5E
:1023E0001AB1838A0B43838202E0838A8B43838200
:1023F0007047028A4FF6F0731A400282028A0A433B
:102400000282704782894FF2FF731A40828182896B
:102410000A438281704721B1828942F0020282819F
:1024200004E082894FF6FD731A4082817047028A68
:102430004FF6DF731A400282028A0A430282704713
:1024400021B1028A42F48042028204E0028A4BF601
:10245000FF731A4002827047C1F3080282807047FE
:1024600001468888C0F308007047818941F0010166
:1024700081817047028BD2B20283028B42EA012231
:1024800002837047028B02F47F420283028B0A436D
:102490000283704721B1828A42F02002828204E0E6
:1024A000828A4FF6DF731A408282704721B1828A96
:1024B00042F01002828204E0828A4FF6EF731A40E3
:1024C0008282704721B1828A42F00802828204E04F
:1024D000828A4FF6F7731A408282704721B182894F
:1024E00042F40042828103E08289C2F30E028281BB
:1024F000704721B1828A42F40062828204E0828ABB
:102500004FF2FF731A4082827047828A4FF6FB7344
:102510001A408282828A0A438282704721B1828A6B
:1025200042F00202828204E0828A4FF6FD731A4072
:102530008282704702460020B1F5007F00D100BFC3
:1025400013880B4201D0012000E00020704701F405
:102550000072B2F5007F00D100BFCA43028070470D
:1025600070B502460024002300250020A1F5106666
:102570006A3E00D100BFC1F3421501F01F030126DE
:1025800006FA03F3012D02D19689334006E0022DAD
:1025900002D1168A334001E0968A33400C1201269C
:1025A00006FA04F41688344013B10CB1012000E09F
:1025B000002070BD10B500220023A1F510646A3C14
:1025C00000D100BF0A1201249440A3B2DC4304806E
:1025D00010BD0000003801400044004000480040A9
:1025E000004C0040005000400020704700BF052410
:1025F00091E04FF4FA60FDF7C8FFFEF7B4FB002846
:1026000076D00020BB490870BB49088000BFBB489A
:10261000007808B30A20FEF79CFDFFF7A2F968B125
:1026200040F6FF71B648DFF8DCC200DF0020B34996
:102630000870B348DFF8D0C200DF2BE040F6FF712E
:10264000AF48DFF8C0C200DF0120AC490870AC48D9
:10265000DFF8B4C200DF1DE0AC48007888B140F676
:10266000FF71A748DFF89CC200DF0020A74908706F
:10267000A348DFF894C200DFA5480078FEF769FDA3
:1026800008E0A448007828B10020A249087006207C
:10269000FFF702F940F6FF719948DFF868C200DFE2
:1026A0000620FEF794FC9648DFF85CC200DF40F697
:1026B000FF719348DFF84CC200DF0720FEF787FC6C
:1026C0008F48DFF844C200DF40F6FF718C48DFF826
:1026D00034C200DFFEF7E9FA8948DFF82CC200DFD8
:1026E000FFF72BF8044694B18B4804700FE0FFE726
:1026F00081480088401C80490880084600880528D9
:1027000005DB01207B49087000207B4908800520FB
:10271000DFF808C200DF6CE710B5002464218048B0
:1027200000F0CDF900207F49087072480078002839
:1027300035D101207A490870487077480078887050
:1027400079480078C870784841787548017105204B
:102750007449087075480078714948717348407829
:1027600048717248807848717048C07848716D48E7
:102770000078001D6B4908706D4800786849487200
:102780006B48407848726A48807848726848C078D8
:10279000487264480078001D6249087009E06421AD
:1027A0005F4800F08CF902205D49087001205D4906
:1027B000087010BD08B5012000909AE000F0CFF835
:1027C000002814D05B484078142811D140F6FF71DE
:1027D0004B48DFF830C100DFFFF79EFF514801781A
:1027E0004F4800F014F94648DFF81CC100DF77E0DD
:1027F0005048407818280BD14E48C078444908709A
:102800000120424908700121684600F0EAF867E0BB
:1028100048484078162807D101203849087001211E
:10282000684600F0DEF85BE042484078152807D1A2
:102830000120384908700121684600F0D2F84FE0C5
:102840003C4840781A2806D1FEF769FF0121684606
:1028500000F0C7F844E0374840781B2807D1012131
:10286000684600F0BEF80120FEF7AEF838E03148C7
:1028700040781C2807D10121684600F0B2F80220F8
:10288000FEF7A2F82CE02B4840781D2806D1012144
:10289000684600F0A6F8FEF7A7F821E02548407842
:1028A0001F2807D10121684600F09BF80120FEF7A0
:1028B000A7F815E01F484078202807D10121684675
:1028C00000F08FF80220FEF79BF809E019484078E5
:1028D0001E2805D10121684600F083F8FEF78AF82A
:1028E00000F033F80520DFF834C000DF1420FDF7D6
:1028F0002AFE63E70E0700200C0700200F070020C8
:10290000B82A002071300008C52F000810070020E9
:10291000110700201307002012070020AD2D00082A
:10292000D034002014070020BC3400208B04002089
:102930008F040020B32D002010B5FDF7A8FEFDF791
:1029400046FE4E484E49086010BD10B5FA214D486C
:1029500000F0B5F800204B4981F8FA0010BD10B521
:102960008EB0342101A800F0AAF800244448006881
:102970000078012833D16420FDF7E5FD00204049AF
:10298000096808703F480078052826D13D488078BE
:10299000002822DD3B488078FF281EDA39488078FD
:1029A000C01CC4B237488078811C3648401CFDF7F3
:1029B000DAFF35490880084600783249095D8842C7
:1029C00009D1314841782F4A601C105C814202D104
:1029D00001200EB010BD0120FBE70020F9E7002028
:1029E000F7E770B505460C46FFF7AFFF4CB9284630
:1029F00000F070F8C6B2324629460120FDF734FFD8
:102A000004E0224629460120FDF72EFF70BD70B577
:102A10009AB006460D46642101A800F050F8002443
:102A200005208DF80400641C14208DF80500641C3A
:102A30008DF80650032401A908192A46314600F0F2
:102A400025F86019C4B2601E81B20DF10500FDF7D2
:102A50008AFF0D4908800846007801A908550A48F0
:102A6000417801AA601C1154A01CC4B2214601A8DF
:102A7000FFF7B7FF1AB070BD7047000014020020C6
:102A80001C090020B32D00201809002040EA010392
:102A90009B0703D009E008C9121F08C0042AFAD214
:102AA00003E011F8013B00F8013B521EF9D27047D8
:102AB000D2B201E000F8012B491EFBD27047002280
:102AC000F6E710B513460A4604461946FFF7F0FF2D
:102AD000204610BD421C10F8011B0029FBD1801AB2
:102AE00070470000064C074D06E0E06840F0010327
:102AF00094E8070098471034AC42F6D3FDF71CFB6E
:102B0000383600085836000870B58D1810F8014B9B
:102B100014F0030201D110F8012B231106D110F893
:102B2000013B03E010F8016B01F8016B521EF9D173
:102B3000B3B110F8012B04F00C048A1A0C2C04D049
:102B4000A2EB841203F1020308E010F8014BA2EBA0
:102B50000422F7E712F8014B01F8014B5B1EF9D58F
:102B6000A942D3D3002070BD0000000002E008C8D5
:102B7000121F08C1002AFAD170477047002001E0F7
:102B800001C1121F002AFBD1704710B5002A06DAD6
:102B900022F00042D21D22F00703102203E0D21CD3
:102BA00022F003030C2213B19C188C4201D901209E
:102BB00010BD024401448360C0E90021C91AD01845
:102BC000884202D810600246F9E70020106010BD6C
:102BD00008480068C0010BD507480068C00707D047
:102BE000054880380068002802DA0449012008708E
:102BF00070470000FCED00E0800E00E02C09002092
:102C00004FF06042D36F002BFCD0C36AD367D36F01
:102C1000002BFCD0C07840EA0120A2F87C0070476D
:102C20004FF06041CA6F002AFCD081F87C007047E9
:102C3000074801684FF0E0204161002181610721D0
:102C400001610448016841F07F410160401770470D
:102C50001C36000820ED00E0704750E8001F31B13D
:102C60000B6840E80032002AF7D108467047BFF3EE
:102C70002F8FFAE770B50D46002812D04FF6FF717E
:102C8000084C884204D222680146104600F05EFAE1
:102C900020684570044800F0C3F8BDE8704000F0BB
:102CA00011BB70BD20090020003600200F4810B570
:102CB0000D4942680E480B680068934204D00A60D0
:102CC000CB88421E1A448A808A8880B282420AD106
:102CD00000200860054800F0A3F80146BDE8104058
:102CE000024800F057BA10BD380900200036002015
:102CF0002809002070B51A4DE86800282ED0A88A4F
:102D0000401EA882002623E0A06838B161684160B7
:102D1000606810B1A16881606660A66010482146B5
:102D2000183800F037FAA08AA8826078042804D105
:102D30000C49E08A09880844A0820120607084F868
:102D40002000E068E860E06808B10561E66026619F
:102D5000A88A002802D1EC68002CD5D170BD0000F3
:102D6000183600202809002070B504000FD00D4D42
:102D7000A17801262868827891420CD900F026FAC1
:102D8000286846702046BDE8704000F09BBA0648AF
:102D900000F046F8F7E766702146BDE8704002484B
:102DA00000F0F8B920090020003600200321FFF7C9
:102DB00061BF000010B50446008B08432083627891
:102DC000618B062A16D0052A17D1084215D001EAD0
:102DD0000002628388432083204600F01BFA012012
:102DE0006070022084F820002146BDE810400348AE
:102DF00000F0D0B931EA0002ECD010BD003600205E
:102E0000814202D342688A4201D80120704750E8CB
:102E1000002F0A6040E80012002AF8D10020704715
:102E20000146406842684A600B780022022B05D0B8
:102E3000012B03D0032B01D04260704743680BB1D4
:102E4000996042608260704770B504460020154664
:102E5000207001226270A1706060A060E06020615B
:102E6000A082E0822083608384F8200084F821001F
:102E7000608C18B90448FFF7F0FEA062294620468E
:102E8000BDE8704000F00EB8E02F0020034800219C
:102E9000016003490988C18070470000380900209B
:102EA0001836000810B5428C920803D10F4A1288D8
:102EB000C2F38D02836A03EB8202530700D5121F0F
:102EC000403A4FF08073C2E90E1300234FEA030427
:102ED00042F823405B1C0E2BFAD3C3691362426293
:102EE000C162806A0249016010BD0000143600080A
:102EF000A52E5AE22DE9F0410F4604464168002014
:102F000004F10C0621B1617802291AD0A189A9B374
:102F1000A189E289914246D2218904EB81010F61A6
:102F2000D6E85F1F491CC6E8521F002AF8D1218944
:102F3000491C89B22181E289914200D12081BDE8FA
:102F4000F081074660702046FFF76AFF80F8207026
:102F50002189054604EB8101C0690861D6E85F0F4D
:102F6000401CC6E8510F0029F8D12089401C80B2CE
:102F70002081E18988420BD1278109E0FFE72046C3
:102F8000FFF74EFF0546C0690421076085F8201051
:102F900001206870284600F03DF92946BDE8F0415F
:102FA000034800F0F7B8BDE8F0410320FDF761BD2C
:102FB00000360020032101700021417041804160F2
:102FC000816070472DE9F0470546408820B1264CC6
:102FD000A9682268914202D0FF20BDE8F087401E18
:102FE0000004000C68803DD121686878DFF87C809F
:102FF00088706A684FF0000901273AB32846FFF746
:103000000FFF0646052086F82000304600F002F942
:103010006F80AE60B07868702168D8F804008A7854
:103020008078824201D330460AE0104800F0B2F8BE
:1030300031460E4800F0AEF82068477077700FE018
:10304000FFF792FE216881F820900BE0D8F8042069
:103050009278824206D9054800F09CF820684770B3
:103060000020EDE70020B8E720090020003600200E
:1030700070B5174D0E4604464188286839B1A168DD
:10308000814208D16088401C6080002070BDA06033
:1030900080786070F6E776B162788078824203D2F9
:1030A0008870A06800F09CF8606830B120462968FC
:1030B00000F070F807E0012070BD286860602868A3
:1030C0000021C0E9011409213046FFF7D3FDF2E7E2
:1030D0002009002070B51A4801210068417000F0F5
:1030E00075F8184D6C7816E005EBC4014868027855
:1030F000E2B1012A1FD000F0B9F8E878641C8442DC
:1031000000D100240F48801CD0E84F1F491EC0E8A2
:10311000421F002AF8D1A8780028E5D16C700A482F
:10312000FFF77EFEBDE8704000F0CCB8098989B297
:10313000FFF740FEE1E78968FFF7DCFEDDE700000E
:10314000200900204032002000360020104A10B52F
:10315000D368ABB113469B8A03E08CB12246A48AA4
:103160002344D4688B42F8D3C460D0600261C46841
:1031700004B12061591A8182908A401A908210BD50
:103180000024C460D060C91A02619182848210BD9B
:103190001836002030B502780023022A03D0012A15
:1031A00001D0032A00D101238C7800E01046426848
:1031B00012B19578A542F9D24A6041601BB102B1C3
:1031C0009160886030BD0020FBE7000003494A6839
:1031D0004260002282604860704700000036002094
:1031E00010B5836804462BB9607801280ED1084BCE
:1031F00003E09B6818780028FBD0204600F01EF8FA
:103200002146BDE810401846FFF7C4BF10BD0000BE
:103210000036002010B5016900290ED0C268CA60CE
:10322000C36800223BB18B8A848A23448B82C368A3
:103230001961C26000E08A82026110BD816839B103
:1032400042684A604168002901D080688860704700
:10325000054906E04A68824202D1406848607047EA
:1032600011460029F6D170470036002010B541689C
:1032700079B1FFF7D5FD0446FFF7CCFF0120607060
:10328000032084F820002146BDE810400348FFF7E2
:1032900081BF4188491C418010BD000000360020DC
:1032A00006480068D0E90910814203D30068044948
:1032B000884202D00120FDF7DCBB704720090020C6
:1032C000A52E5AE20749022248604270064A127847
:1032D000002A05D006C98A4202D0C078FFF7A0BCF8
:1032E00070470000200900202C0900202DE9F0473C
:1032F000164688468146FFF76BFC002004463E4A8E
:103300003E4902E042F82040401C0B889842F9D325
:103310003B48302201883B48FFF737FC3A48008899
:1033200080B240F00042394801683948FFF72DFC6F
:1033300038480822018838480068FFF726FC374FD4
:10334000FF25374AFD707C8400213846FFF77CFD5D
:10335000344804210170446033480170C460046142
:103360008482786A2030FCF7EDFE304831490760EE
:10337000022078702E48047044700978C170FFF7FD
:1033800085FD2D48016841F47F0101600068290630
:1033900001EA00202849C0431439B0FA80F00968D6
:1033A000C0F10800C1F30221814200DB481C224920
:1033B000091F0B686FF08072824063F317020A6086
:1033C000FFF736FC1D49002808600CDB1C494554FA
:1033D00000F01F020121914040114FF0E02202EB6A
:1033E0008000C0F80011324641464846BDE8F0472B
:1033F000002300F065B80000C43200201036000839
:103400002C360008B02E0020143600083036000894
:10341000E02F00203636000820020020D0350020A2
:103420006D0A000800360020183600202009002010
:10343000403200203436000820ED00E0340900203E
:1034400000E400E00B4810B5006801214170FFF76F
:10345000BDFEFFF72BFC08480168491C0160FFF71F
:1034600049FC00F00DF80548FFF7DAFCBDE8104014
:10347000FFF728BF2009002028090020003600207F
:1034800070B50D4C2068002815D0A0880B4E401E4A
:10349000A0800AE0E888FDF7EBFAA888A0802868F9
:1034A000206029463068FFF7ABFCA088002802D1D5
:1034B0002568002DEED170BD4009002020020020BB
:1034C0002DE9F0411E46174680460C4611F0FF0FCD
:1034D00000D14C1C1A48FFF7C0FB05002DD0C4F3E7
:1034E0000F20AF626884E1B242462846EE61FFF7E2
:1034F000ABFC01241348144906E000BF00EB840232
:1035000052F8042C22B1641C0A889442F6D9002493
:1035100000EB8400E6B240F8045C0C48EE700078E2
:1035200018B101212846FFF76BFB2846FFF71CFC6A
:103530000748006880F820602046BDE8F081000060
:10354000B02E0020C4320020103600082C090020C4
:10355000200900202DE9F041284C274F284E2168F2
:10356000002510B1CA78824220D14D70FCF7EDFDE4
:1035700021684862FFF794FE2068C17806EB81015C
:1035800041F8045C816A1F48FFF73AFC20688562B5
:10359000397811B10021FFF733FB1B482168FFF791
:1035A0002FFC00202560FFF7DFFB1FE0174909888B
:1035B00088421ED806EB800656F8044CCCB1204653
:1035C000FFF73CFE2046FFF725FE46F8045C0D4859
:1035D000A16AFFF715FCA562387818B100212046D2
:1035E000FFF70EFB21460848FFF70AFC0020BDE864
:1035F000F081FF20FBE700002C09002020090020BB
:10360000C4320020E02F0020B02E00201036000829
:103610000600000028010501E80301001F1C00004E
:103620000100000064000000000000002C01000008
:103630006002000010000000583600080000002062
:1036400048090000082B0008183800084809002025
:10365000E86C00007C2B0008500600A24A04000120
:103660002011010203040607080900C1814001C0BE
:10367000804104610C2108E118A11C011A300116D7
:1036800038013660012E70012F6000FF00C0C101BB
:10369000C30302C2C60607C705C5C404CC0C0DCDC2
:1036A0000FCFCE0E0ACACB0BC90908C8D81819D932
:1036B0001BDBDA1A1EDEDF1FDD1D1CDC14D4D51562
:1036C000D71716D6D21213D311D1D010F03031F152
:1036D00033F3F23236F6F737F53534F43CFCFD3D82
:1036E000FF3F3EFEFA3A3BFB39F9F83828E8E92972
:1036F000EB2B2AEAEE2E2FEF2DEDEC2CE42425E522
:1037000027E7E62622E2E323E12120E0A06061A191
:1037100063A3A26266A6A767A56564A46CACAD6D41
:10372000AF6F6EAEAA6A6BAB69A9A86878B8B979B1
:10373000BB7B7ABABE7E7FBF7DBDBC7CB47475B5E1
:1037400077B7B67672B2B373B17170B050909151D1
:103750009353529296565797559594549C5C5D9D01
:103760005F9F9E5E5A9A9B5B9959589888484989F1
:103770004B8B8A4A4E8E8F4F8D4D4C8C44848545A1
:103780008747468682424383418180E340000109A6
:10379000FF1009FC102011010F3C0108013001400D
:1037A000084080B8380150078013420228000A05FB
:1037B000000305020A05E0010A05C0FF0130090007
:1037C0000100040002000804193F101F0302030255
:1037D00001080A06030AFE0A06190210140018144A
:1037E000030300000A10140A320145021100012DE2
:1037F0008D046D91040805FF020406088609FF8602
:103800000961860C06FF0100000505F40409FF6E3E
:083810000D120407011D010067
:0400000508000131BD
:00000001FF
